{
  "contractName": "ForceSend",
  "abi": [
    {
      "constant": false,
      "inputs": [
        {
          "name": "victim",
          "type": "address"
        }
      ],
      "name": "go",
      "outputs": [],
      "payable": true,
      "stateMutability": "payable",
      "type": "function",
      "signature": "0x3434e749"
    }
  ],
  "bytecode": "0x608060405234801561001057600080fd5b5060ca8061001f6000396000f3fe608060405260043610603f576000357c0100000000000000000000000000000000000000000000000000000000900463ffffffff1680633434e749146044575b600080fd5b608360048036036020811015605857600080fd5b81019080803573ffffffffffffffffffffffffffffffffffffffff1690602001909291905050506085565b005b8073ffffffffffffffffffffffffffffffffffffffff16fffea165627a7a723058200049d3b74c1c4c762a2f4b63e0ed49222bcd58561b08df5dfcd6eb232ed5388a0029",
  "source": "pragma solidity ^0.5.0;\n// For test suite\ncontract ForceSend {\n    function go(address payable victim) external payable {\n        selfdestruct(victim);\n    }\n}\n",
  "sourcePath": "/root/truffle-mint-dai-master/src/contracts/ForceSend.sol",
  "compiler": {
    "name": "solc",
    "version": "0.5.0+commit.1d4f565a.Emscripten.clang"
  },
  "schemaVersion": "3.0.1",
  "updatedAt": "2020-06-30T02:18:41.587Z",
  "devdoc": {
    "methods": {}
  },
  "userdoc": {
    "methods": {}
  }
}